S00D0000636C6F636B2E737265630B
S113000012C024C023C022C021C020C01FC01EC0F3
S11300101DC01CC01BC01AC019C018C017C016C010
S113002015C014C013C011241FBECFE5D4E0DEBF39
S1130030CDBF10E0A0E6B0E0E8E2F2E002C0059037
S11300400D92A437B107D9F702D0ECC0D9CFCF9322
S1130050DF93CDB7DEB768970FB6F894DEBF0FBE57
S1130060CDBF8FEF81BB87BB84E1E0E6F0E0DE012A
S1130070119601900D928A95E1F7AA24A394B12CCC
S1130080812C912C612C712C20E030E0C12CD12CDE
S1130090212C312CCE0145969E8B8D8B0F2EFFEE9D
S11300A0EF2EF02D0F2EFDEFFF2EF02D0EEF17EF9C
S11300B07BEF6FED512C412CADC0F8BAFA013080C2
S11300C032BAE9EFF0E03197F1F700C0000008BB65
S11300D0EC91E2BBE9EFF0E03197F1F700C00000EA
S11300E018BBF601EE0FFF1F22242394312C2C0E93
S11300F03D1EE20DF31DE081E2BBE9EFF0E0319734
S1130100F1F700C0000078BBF901EE0FFF1F2224B5
S11301102394312C2C0E3D1EE20DF31DE081E2BB35
S1130120E9EFF0E03197F1F700C0000068BBF3019C
S1130130EE0FFF1F22242394312C2C0E3D1EE20DC2
S1130140F31DE081E2BBE9EFF0E03197F1F700C085
S11301500000E8BAF401EE0FFF1F22242394312C8F
S11301602C0E3D1EE20DF31DE081E2BBE9EFF0E051
S11301703197F1F700C00000FCE3AF16B10469F554
S11301802F5F3F4F2A303105D1F42FEFC21AD20A24
S1130190E6E0CE16D104B1F4FFEF8F1A9F0A2AE0ED
S11301A082169104A1F4EFEF6E1A7E0A852C942C2A
S11301B0252D342DC52CD42CA52CB42C0EC0A52C47
S11301C0B42C0BC0252D342DA52CB42C06C0252D04
S11301D0342DC52CD42CA52CB42C0197009709F0F0
S11301E06CCF2F88388CFFEFAF1ABF0A12968D8917
S11301F09E89A817B90729F086E990E0388E2F8ADE
S11302005CCF9FEF291A390AE6E02E16310414F068
S1130210212C312CDE011196A101440F551F4A0FE8
S10B02205B1FEACFF894FFCF45
S1130228FC006000DA00F2006600B600BE00E000E0
S1070238FE00F600CA
S9030000FC
